:100000000C942A000C9447000C9447000C94470071
:100010000C9447000C9447000C9447000C94470044
:100020000C9447000C9447000C9447000C94470034
:100030000C9447000C9447000C9447000C94470024
:100040000C9447000C9447000C9447000C94470014
:100050000C94470011241FBECFE5D8E0DEBFCDBF12
:1000600010E0A0E6B0E0E6EBFDE002C005900D92E6
:10007000AC37B107D9F710E0ACE7B0E001C01D9292
:10008000A438B107E1F70E9447040C94D9060C94F8
:10009000000084E460E041E00E94A70084E461E0A5
:1000A00041E00E94A70084E462E041E00E94A700D2
:1000B00084E463E041E00E94A70081E463E041E062
:1000C0000E94A70081E460E041E00E94A700929AAC
:1000D000939A83E460E041E00E94A70083E461E03A
:1000E00041E00E94A70083E462E041E00E94A70093
:1000F00083E463E041E00E94A70081E461E041E025
:100100000E94A70081E462E041E00E94A700AA9A51
:10011000AB9A0895909AD99AA89ADB9A9198D89810
:10012000A998DA9808959098D998A898DB9891980A
:10013000D898A998DA980895DB9A909A0895A89A81
:10014000D99A0895919AD89AA99ADA9A08958234F8
:1001500051F1833420F4813409F07BC007C083342B
:1001600009F43EC0843409F074C057C0413069F4CA
:100170002AB381E090E0AC0102C0440F551F6A959C
:10018000E2F7BA01622B6ABB08952AB381E090E0DE
:10019000AC0102C0440F551F6A95E2F7BA016095A1
:1001A00062236ABB0895413069F427B381E090E08F
:1001B000AC0102C0440F551F6A95E2F7BA01622BE9
:1001C00067BB089527B381E090E0AC0102C0440F03
:1001D000551F6A95E2F7BA016095622367BB0895DF
:1001E000413069F424B381E090E0AC0102C0440FD7
:1001F000551F6A95E2F7BA01622B64BB089524B3D8
:1002000081E090E0AC0102C0440F551F6A95E2F70F
:10021000BA016095622364BB0895413069F421B34B
:1002200081E090E0AC0102C0440F551F6A95E2F7EF
:10023000BA01622B61BB089521B381E090E0AC016B
:1002400002C0440F551F6A95E2F7BA016095622318
:1002500061BB0895823451F1833420F4813409F074
:100260007BC007C0833409F43EC0843409F074C0F5
:1002700057C0413069F42BB381E090E0AC0102C07B
:10028000440F551F6A95E2F7BA01622B6BBB0895C4
:100290002BB381E090E0AC0102C0440F551F6A957A
:1002A000E2F7BA01609562236BBB0895413069F4AF
:1002B00028B381E090E0AC0102C0440F551F6A955D
:1002C000E2F7BA01622B68BB089528B381E090E0A1
:1002D000AC0102C0440F551F6A95E2F7BA01609560
:1002E000622368BB0895413069F425B381E090E052
:1002F000AC0102C0440F551F6A95E2F7BA01622BA8
:1003000065BB089525B381E090E0AC0102C0440FC5
:10031000551F6A95E2F7BA016095622365BB08959F
:10032000413069F422B381E090E0AC0102C0440F97
:10033000551F6A95E2F7BA01622B62BB089522B39A
:1003400081E090E0AC0102C0440F551F6A95E2F7CE
:10035000BA016095622362BB08958234F1F0833460
:1003600020F4813409F04FC006C0833441F1843455
:1003700009F049C036C029B381E090E0062E02C0E2
:10038000880F991F0A94E2F730E08223932302C07A
:10039000959587956A95E2F7089526B381E090E0F8
:1003A000062E02C0880F991F0A94E2F730E08223DC
:1003B000932302C0959587956A95E2F7089523B334
:1003C00081E090E0062E02C0880F991F0A94E2F7A0
:1003D00030E08223932302C0959587956A95E2F7D2
:1003E000089520B381E090E0062E02C0880F991F87
:1003F0000A94E2F730E08223932302C09595879513
:100400006A95E2F7089580E008958234B9F0833464
:1004100018F48134C9F505C08334E9F08434A1F5BA
:1004200027C02BB381E090E0AC0102C0440F551F00
:100430006A95E2F7BA0162276BBB089528B381E0A1
:1004400090E0AC0102C0440F551F6A95E2F7BA0173
:10045000622768BB089525B381E090E0AC0102C03B
:10046000440F551F6A95E2F7BA01622765BB0895EC
:1004700022B381E090E0AC0102C0440F551F6A95A1
:10048000E2F7BA01622762BB0895823461F08334D7
:1004900018F4813469F405C0833439F0843441F4AC
:1004A00006C06ABB089567BB089564BB089561BB2D
:1004B0000895823461F0833418F4813469F405C0FE
:1004C000833439F0843441F406C06BBB089568BBB3
:1004D000089565BB089562BB0895823461F083344A
:1004E00018F4813471F405C0833439F0843449F44C
:1004F00006C089B3089586B3089583B3089580B381
:10050000089580E00895823451F1833420F48134D9
:1005100009F07BC007C0833409F43EC0843409F07D
:1005200074C057C0413069F42BB381E090E0AC0156
:1005300002C0440F551F6A95E2F7BA01622B6BBBEC
:1005400008952BB381E090E0AC0102C0440F551F29
:100550006A95E2F7BA01609562236BBB089541305A
:1005600069F428B381E090E0AC0102C0440F551F4C
:100570006A95E2F7BA01622B68BB089528B381E05F
:1005800090E0AC0102C0440F551F6A95E2F7BA0132
:100590006095622368BB0895413069F425B381E01A
:1005A00090E0AC0102C0440F551F6A95E2F7BA0112
:1005B000622B65BB089525B381E090E0AC0102C0D9
:1005C000440F551F6A95E2F7BA016095622365BB37
:1005D0000895413069F422B381E090E0AC0102C09B
:1005E000440F551F6A95E2F7BA01622B62BB08956A
:1005F00022B381E090E0AC0102C0440F551F6A9520
:10060000E2F7BA016095622362BB08956F7082348D
:1006100081F0833418F48134F1F405C0833479F027
:100620008434C9F412C08BB3807F8BBB8BB3862B11
:100630008BBB88B3807F88BB88B3862B88BB85B390
:10064000807F85BB85B3862B85BB82B3807F82BBD1
:1006500082B3682B62BB08956295607F823481F01B
:10066000833418F48134F1F405C0833479F0843490
:10067000C9F412C08BB38F708BBB8BB3862B8BBB33
:1006800088B38F7088BB88B3862B88BB85B38F7087
:1006900085BB85B3862B85BB82B38F7082BB82B34B
:1006A000682B62BB089582E460E041E00E942A0169
:1006B0008FE99FE00197F1F700C0000082E460E05D
:1006C00040E00E942A018FE99FE00197F1F700C006
:1006D00000000895CF93C82F682F62956F7081E452
:1006E0000E942C0382E461E040E00E942A010E9403
:1006F000530381E46C2F0E942C0382E461E040E00C
:100700000E942A010E9453038FEC97E00197F1F7B2
:1007100000C00000CF9108958FEF91EEA4E08150CA
:100720009040A040E1F700C0000081E464E041E0B7
:100730000E94A70081E465E041E00E94A70081E4F7
:1007400066E041E00E94A70081E467E041E00E948A
:10075000A70082E460E041E00E94A70082E462E03A
:1007600041E00E94A70082E461E041E00E94A7000E
:1007700082E462E040E00E942A0182E00E946A0373
:10078000AFE1BEE41197F1F700C0000088E20E94DB
:100790006A038FEC97E00197F1F700C000008EE04C
:1007A0000E946A03AFECB7E01197F1F700C00000B8
:1007B00081E00E946A038FE19EE40197F1F700C097
:1007C000000086E00E946A03AFECB7E01197F1F7F2
:1007D00000C000000895CF93C82F682F62956F70F6
:1007E00081E40E942C0382E461E041E00E942A013E
:1007F0000E94530381E46C2F0E942C0382E461E089
:1008000041E00E942A010E9453038FEC97E0019778
:10081000F1F700C00000CF910895CF93DF93EC0172
:100820008881882331F021960E94EB0389918823E7
:10083000D9F7DF91CF91089581E00E946A038FE19B
:100840009EE40197F1F700C000000895282F215081
:10085000223070F4613170F4662371F0813019F444
:10086000962F91580AC0823041F4962F915405C0BA
:1008700090E803C090E801C090E8892F0E946A03C5
:100880008FEC97E00197F1F700C0000008950E94F7
:1008900054050E9449000E948C0300E610E00F2ED0
:1008A000F3E7EF2EF0E0FF2EF02D0F2EFEE6AF2E39
:1008B000F0E0BF2EF02D0F2EF8E6CF2EF0E0DF2E69
:1008C000F02D0E946505282F392F2932310544F07B
:1008D0000E941C040E948A00C8010E940D04F1CFEE
:1008E0002832310574F70E94930080E00E94DF04F3
:1008F0008FEF99E6A8E181509040A040E1F700C059
:1009000000000E946505C82F8FEF92E5A7E0815097
:100910009040A040E1F700C0000084EB0E94DF049B
:100920008FEF99E6A8E181509040A040E1F700C028
:1009300000000E946505D82F8FEF92E5A7E0815057
:100940009040A040E1F700C000008AE50E94DF046B
:10095000DC1788F40E941C04C6010E940D040E944A
:100960009F008FEF92E5A7E081509040A040E1F713
:1009700000C00000A6CFCD1788F40E941C04C5015A
:100980000E940D040E949C008FEF92E5A7E0815029
:100990009040A040E1F700C0000093CF0E941C04EB
:1009A000C7010E940D040E94A2008FEF92E5A7E00C
:1009B00081509040A040E1F700C0000082CF882322
:1009C00039F460E070E080E89FE30E94200508951C
:1009D000843B39F460E070E080E090E40E94200500
:1009E00008958A3539F460E070E080EC9FE30E945E
:1009F0002005089560E070E0CB010E942005089575
:100A000083B7886083BF80E58CBF83B7816083BF75
:100A100083B7846083BF789489B7826089BF089563
:100A2000BB9A83B7886083BF80E48CBF83B7816043
:100A300083BF83B7846083BF83B7806183BF08951A
:100A40008D9A2FB522602FBD2EB528602EBD2EB5F4
:100A500020612EBD20E030E04AE754E40E940D06FC
:100A60000E94B805DC01CB019BBD8ABD8FE19EE4ED
:100A700097BD86BD8EB581608EBD8FB580688FBDF8
:100A80000895BB9A83B7806483BF80E48CBF83B72B
:100A9000816083BF83B7846083BF83B7806183BF76
:100AA00083B7806283BF089584E490E067E070E0DC
:100AB00041E050E00E94A70084E490E066E070E02E
:100AC00040E050E00E94A70008951FBC80E288BF6C
:100AD00084E490E067E070E041E050E00E942A0189
:100AE00085E88A95F1F7000084E490E067E070E023
:100AF00040E050E00E942A0181EC8EBD08B605FE60
:100B0000FDCF86B597B5909383008093820080E2F5
:100B100088BF81E88EBD08B605FEFDCF66B577B506
:100B200070937D0060937C0080E288BF1DBC1CBC7C
:100B30001EBC8091820090918300681B790B70939A
:100B400081006093800080E090E028E237E840E098
:100B500050E00E94980620E034E244EF50E00E940A
:100B6000B70620937E0030937F00822F932F089545
:100B700033D088F09F5790F0B92F9927B751A0F044
:100B8000D1F0660F771F881F991F1AF0BA95C9F721
:100B900012C0B13081F03AD0B1E0089537C0672F6C
:100BA000782F8827B85F39F0B93FCCF386957795D1
:100BB0006795B395D9F73EF49095809570956195BA
:100BC0007F4F8F4F9F4F089557FD9058440F551FEB
:100BD00059F05F3F71F04795880F97FB991F61F0BF
:100BE0009F3F79F087950895121613061406551F36
:100BF000F2CF4695F1DF08C0161617061806991FA2
:100C0000F1CF86957105610508940895E894BB2796
:100C100066277727CB0197F908950BD078C069D064
:100C200028F06ED018F0952309F05AC05FC0112447
:100C3000EECFCADFA0F3959FD1F3950F50E0551F7B
:100C4000629FF001729FBB27F00DB11D639FAA2721
:100C5000F00DB11DAA1F649F6627B00DA11D661F70
:100C6000829F2227B00DA11D621F739FB00DA11D91
:100C7000621F839FA00D611D221F749F3327A00D4B
:100C8000611D231F849F600D211D822F762F6A2FE7
:100C900011249F5750408AF0E1F088234AF0EE0F6C
:100CA000FF1FBB1F661F771F881F91505040A9F779
:100CB0009E3F510570F014C0AACF5F3FECF3983E01
:100CC000DCF3869577956795B795F795E7959F5FE0
:100CD000C1F7FE2B880F911D9695879597F908957A
:100CE00097F99F6780E870E060E008959FEF80ECDF
:100CF000089500240A941616170618060906089582
:100D000000240A9412161306140605060895092EE7
:100D10000394000C11F4882352F0BB0F40F4BF2B56
:100D200011F460FF04C06F5F7F4F8F4F9F4F089596
:100D3000629FD001739FF001829FE00DF11D649FBF
:100D4000E00DF11D929FF00D839FF00D749FF00D4B
:100D5000659FF00D9927729FB00DE11DF91F639FEC
:100D6000B00DE11DF91FBD01CF0111240895A1E2CD
:100D70001A2EAA1BBB1BFD010DC0AA1FBB1FEE1F15
:100D8000FF1FA217B307E407F50720F0A21BB30B60
:100D9000E40BF50B661F771F881F991F1A9469F7DC
:100DA00060957095809590959B01AC01BD01CF0138
:060DB0000895F894FFCF46
:100DB600666F7277617264007269676874006C6549
:0C0DC6006674006261636B776172640008
:00000001FF
